:100000000C9458000C9419010C9440010C9480003D
:100010000C9480000C9480000C9480000C94800060
:100020000C9480000C9480000C9480000C94800050
:100030000C9480000C9480000C9480000C94800040
:100040000C9465040C9480000C947B020C94AD021B
:100050000C9480000C9480000C9480000C94800020
:100060000C9480000C948000000000080002010045
:100070000003040700000000000000000102040863
:100080001020408001020408102001020408102002
:10009000040404040404040402020202020203032E
:1000A0000303030300000000230026002900DD02F3
:1000B00011241FBECFEFD8E0DEBFCDBF11E0A0E01E
:1000C000B1E0E8E2FAE002C005900D92A632B10775
:1000D000D9F721E0A6E2B1E001C01D92AE3CB20723
:1000E000E1F710E0C0EBD0E004C02297FE010E94CF
:1000F0000E05CE3AD107C9F70E946C020C94120586
:100100000C94000082E00E94CF009093270180931E
:10011000260160912601709127014AE050E088E2B3
:1001200091E00C94530226E040E855E260E070E074
:1001300088E291E00E94030443E050E062E870E04E
:1001400080E00C94F900F89478940895833081F05D
:1001500028F4813099F08230A1F008958730A9F019
:100160008830B9F08430D1F4809180008F7D03C055
:10017000809180008F7780938000089584B58F7779
:1001800002C084B58F7D84BD08958091B0008F77C3
:1001900003C08091B0008F7D8093B0000895CF930D
:1001A000DF93282F30E0F901E859FF4F8491F901DE
:1001B000E458FF4FD491F901E057FF4FC491CC238D
:1001C00091F081110E94A600EC2FF0E0EE0FFF1FCE
:1001D000EC55FF4FA591B4912C912D2381E090E037
:1001E00021F480E002C080E090E0DF91CF9108959B
:1001F00008958230E8F4E82FF0E0EE0FFF1FE050A2
:10020000FF4F71836083813041F0809169008C7F62
:10021000842B80936900E89A089580916900440FC7
:10022000551F440F551F837F842B80936900E99AE3
:1002300008951F920F920FB60F9211242F933F93A0
:100240004F935F936F937F938F939F93AF93BF93DE
:10025000EF93FF93E0910001F09101010995FF9167
:10026000EF91BF91AF919F918F917F916F915F912E
:100270004F913F912F910F900FBE0F901F901895A7
:100280001F920F920FB60F9211242F933F934F930B
:100290005F936F937F938F939F93AF93BF93EF93EE
:1002A000FF93E0910201F09103010995FF91EF9115
:1002B000BF91AF919F918F917F916F915F914F917E
:1002C0003F912F910F900FBE0F901F901895CF92D6
:1002D000DF92EF92FF920F931F93CF93DF937C01F6
:1002E0006A01EB0100E010E00C151D0571F0699149
:1002F000D701ED91FC910190F081E02DC7010995A6
:10030000892B19F00F5F1F4FEFCFC801DF91CF91FD
:100310001F910F91FF90EF90DF90CF90089561159E
:10032000710581F0DB010D900020E9F7AD0141502E
:100330005109461B570BDC01ED91FC910280F381C2
:10034000E02D099480E090E00895DC01ED91FC91AE
:100350000190F081E02D099464E071E00C948F012C
:100360008F929F92AF92BF92CF92DF92EF92FF92C5
:100370000F931F93CF93DF93CDB7DEB7A1970FB63F
:10038000F894DEBF0FBECDBF7C01C42EE52FCB019C
:10039000D22E19A221E02D1510F02AE0D22E8E01C6
:1003A0000F5D1F4F8D2C912CA12CB12C6C2D7E2F0D
:1003B000A50194010E94EA048C2DD29E801911247B
:1003C000015011098A3014F4805D01C0895CF80184
:1003D0008083211531054105510521F0C22EE32FFF
:1003E000CA01E4CFB801C7010E948F01A1960FB6E0
:1003F000F894DEBF0FBECDBFDF91CF911F910F915B
:10040000FF90EF90DF90CF90BF90AF909F908F9034
:100410000895CF92DF92EF92FF920F931F93CF93A5
:10042000DF93EC016A017B012115310579F4E88144
:10043000F9810190F081E02D642FDF91CF911F9120
:100440000F91FF90EF90DF90CF9009942A30310503
:10045000E9F477FF1AC06DE20E94A5018C014427E0
:100460005527BA014C195D096E097F092AE0CE01B2
:100470000E94B001800F911FDF91CF911F910F91CA
:10048000FF90EF90DF90CF9008952AE0B701A6018A
:10049000CE01DF91CF911F910F91FF90EF90DF90F0
:1004A000CF900C94B0010F931F93CF93DF93EC0187
:1004B0009A01AB01662757FD6095762F0E940902CD
:1004C0008C01CE010E94AC01800F911FDF91CF9172
:1004D0001F910F91089508950E94AF040E946B022E
:1004E0000E949300CDE4D3E00E94A3002097E1F3A3
:1004F0000E944D03F9CF1F920F920FB60F92112455
:100500002F938F939F93EF93FF93E0913801F09196
:1005100039018081E0913E01F0913F0182FD12C0DE
:100520009081809141018F5F8F73209142018217EA
:1005300051F0E0914101F0E0E85DFE4F958F80932E
:10054000410101C08081FF91EF919F918F912F9187
:100550000F900FBE0F901F9018951F920F920FB61D
:100560000F9211242F933F934F935F936F937F9339
:100570008F939F93AF93BF93EF93FF9388E291E0A4
:100580000E945B03FF91EF91BF91AF919F918F917B
:100590007F916F915F914F913F912F910F900FBE7F
:1005A0000F901F90189588E291E00E94200321E0AF
:1005B000892B09F420E0822F089510922B011092CC
:1005C0002A0188EE93E0A0E0B0E080932C019093A4
:1005D0002D01A0932E01B0932F0189E191E090931A
:1005E00029018093280185EC90E090933501809358
:1005F000340184EC90E0909337018093360180ECD5
:1006000090E0909339018093380181EC90E09093D1
:100610003B0180933A0182EC90E090933D018093FE
:100620003C0186EC90E090933F0180933E01109254
:100630004101109242011092430110924401089529
:10064000FC01818D228D90E0805C9F4F821B91097F
:100650008F7399270895FC01918D828D981731F041
:10066000828DE80FF11D858D90E008958FEF9FEF4B
:100670000895FC01918D828D981761F0828DDF01C4
:10068000A80FB11D5D968C91928D9F5F9F73928F85
:1006900090E008958FEF9FEF089583ED92E0892B0E
:1006A00049F080E090E0892B29F00E94D30281116B
:1006B0000C9400000895FC01848DDF01A80FB11D8A
:1006C000A35ABF4F2C91848D90E001968F73992788
:1006D000848FA689B7892C93A089B1898C91806475
:1006E0008C93938D848D981306C00288F389E02D36
:1006F00080818F7D80830895CF93DF93EC01888D77
:100700008823C9F0EA89FB89808185FD05C0A88915
:10071000B9898C9186FD0FC00FB607FCF5CF80819B
:1007200085FFF2CFA889B9898C9185FFEDCFCE01E5
:100730000E945B03E7CFDF91CF910895CF92DF92C4
:10074000FF920F931F93CF93DF931F92CDB7DEB726
:100750006C0181E0D60158968C9358975B969C91DA
:100760005B975C968C915C97981307C05096ED91BF
:10077000FC915197808185FD2EC0F601038D10E01C
:100780000F5F1F4F0F731127F02EF601848DF812A3
:1007900011C00FB607FCF9CFD6015096ED91FC9130
:1007A0005197808185FFF1CFC60169830E945B0369
:1007B0006981EBCF838DE80FF11DE35AFF4F608312
:1007C000D6015B960C935B975296ED91FC915397F3
:1007D000808180620CC0D6015696ED91FC915797AE
:1007E00060835096ED91FC91519780818064808365
:1007F00081E090E00F90DF91CF911F910F91FF90DA
:10080000DF90CF900895BF92CF92DF92EF92FF9248
:10081000CF93DF93EC016A017B01B22EE889F9895D
:1008200082E08083411581EE580761057105A1F0D2
:1008300060E079E08DE390E0A70196010E94EA0470
:10084000215031094109510956954795379527950A
:10085000211580E1380798F0E889F989108260E86D
:1008600074E88EE190E0A70196010E94EA0421500D
:100870003109410951095695479537952795EC85DA
:10088000FD853083EE85FF852083188EEC89FD89F8
:10089000B082EA89FB89808180618083EA89FB8953
:1008A000808188608083EA89FB8980818068808379
:1008B000EA89FB8980818F7D8083DF91CF91FF90D2
:1008C000EF90DF90CF90BF9008951F920F920FB6D8
:1008D0000F9211242F933F938F939F93AF93BF93C6
:1008E0008091C6019091C701A091C801B091C90142
:1008F0003091C50123E0230F2D3720F40196A11D6F
:10090000B11D05C026E8230F0296A11DB11D20933D
:10091000C5018093C6019093C701A093C801B0930D
:10092000C9018091CA019091CB01A091CC01B091F5
:10093000CD010196A11DB11D8093CA019093CB01F9
:10094000A093CC01B093CD01BF91AF919F918F91B6
:100950003F912F910F900FBE0F901F901895789494
:1009600084B5826084BD84B5816084BD85B58260B4
:1009700085BD85B5816085BDEEE6F0E08081816052
:100980008083E1E8F0E01082808182608083808152
:1009900081608083E0E8F0E0808181608083E1EB2A
:1009A000F0E0808184608083E0EBF0E08081816012
:1009B0008083EAE7F0E080818460808380818260C8
:1009C00080838081816080838081806880831092B1
:1009D000C1000895A1E21A2EAA1BBB1BFD010DC088
:1009E000AA1FBB1FEE1FFF1FA217B307E407F507DF
:1009F00020F0A21BB30BE40BF50B661F771F881FBB
:100A0000991F1A9469F760957095809590959B0150
:100A1000AC01BD01CF010895EE0FFF1F0590F491C9
:080A2000E02D0994F894FFCFCA
:100A2800F800F8000D0A006E616E00696E66006FCE
:100A38007666002E00000000009E0367012003393F
:060A4800032B037C0300F8
:00000001FF
